{
	"contracts/test/echidna/EchidnaInvariants.sol": {
		"EchidnaInvariants": {
			"abi": [
				{
					"inputs": [],
					"name": "echidna_k_is_positive",
					"outputs": [
						{
							"internalType": "bool",
							"name": "",
							"type": "bool"
						}
					],
					"stateMutability": "view",
					"type": "function"
				}
			],
			"devdoc": {
				"kind": "dev",
				"methods": {},
				"version": 1
			},
			"evm": {
				"assembly": "    /* \"contracts/test/echidna/EchidnaInvariants.sol\":284:445  contract EchidnaInvariants {... */\n  mstore(0x40, 0x80)\n    /* \"contracts/test/echidna/EchidnaInvariants.sol\":338:347  1_000_000 */\n  0x0f4240\n    /* \"contracts/test/echidna/EchidnaInvariants.sol\":317:347  uint256 internal k = 1_000_000 */\n  0x00\n  sstore\n    /* \"contracts/test/echidna/EchidnaInvariants.sol\":284:445  contract EchidnaInvariants {... */\n  callvalue\n  dup1\n  iszero\n  tag_1\n  jumpi\n  revert(0x00, 0x00)\ntag_1:\n  pop\n  dataSize(sub_0)\n  dup1\n  dataOffset(sub_0)\n  0x00\n  codecopy\n  0x00\n  return\nstop\n\nsub_0: assembly {\n        /* \"contracts/test/echidna/EchidnaInvariants.sol\":284:445  contract EchidnaInvariants {... */\n      mstore(0x40, 0x80)\n      callvalue\n      dup1\n      iszero\n      tag_1\n      jumpi\n      revert(0x00, 0x00)\n    tag_1:\n      pop\n      jumpi(tag_2, lt(calldatasize, 0x04))\n      shr(0xe0, calldataload(0x00))\n      dup1\n      0xc644f100\n      eq\n      tag_3\n      jumpi\n    tag_2:\n      revert(0x00, 0x00)\n        /* \"contracts/test/echidna/EchidnaInvariants.sol\":354:443  function echidna_k_is_positive() public view returns (bool) {... */\n    tag_3:\n      tag_4\n      tag_5\n      jump\t// in\n    tag_4:\n      mload(0x40)\n      tag_6\n      swap2\n      swap1\n      tag_7\n      jump\t// in\n    tag_6:\n      mload(0x40)\n      dup1\n      swap2\n      sub\n      swap1\n      return\n    tag_5:\n        /* \"contracts/test/echidna/EchidnaInvariants.sol\":408:412  bool */\n      0x00\n        /* \"contracts/test/echidna/EchidnaInvariants.sol\":435:436  0 */\n      0x00\n        /* \"contracts/test/echidna/EchidnaInvariants.sol\":431:432  k */\n      sload(0x00)\n        /* \"contracts/test/echidna/EchidnaInvariants.sol\":431:436  k > 0 */\n      gt\n        /* \"contracts/test/echidna/EchidnaInvariants.sol\":424:436  return k > 0 */\n      swap1\n      pop\n        /* \"contracts/test/echidna/EchidnaInvariants.sol\":354:443  function echidna_k_is_positive() public view returns (bool) {... */\n      swap1\n      jump\t// out\n        /* \"#utility.yul\":7:97   */\n    tag_9:\n        /* \"#utility.yul\":41:48   */\n      0x00\n        /* \"#utility.yul\":84:89   */\n      dup2\n        /* \"#utility.yul\":77:90   */\n      iszero\n        /* \"#utility.yul\":70:91   */\n      iszero\n        /* \"#utility.yul\":59:91   */\n      swap1\n      pop\n        /* \"#utility.yul\":7:97   */\n      swap2\n      swap1\n      pop\n      jump\t// out\n        /* \"#utility.yul\":103:212   */\n    tag_10:\n        /* \"#utility.yul\":184:205   */\n      tag_14\n        /* \"#utility.yul\":199:204   */\n      dup2\n        /* \"#utility.yul\":184:205   */\n      tag_9\n      jump\t// in\n    tag_14:\n        /* \"#utility.yul\":179:182   */\n      dup3\n        /* \"#utility.yul\":172:206   */\n      mstore\n        /* \"#utility.yul\":103:212   */\n      pop\n      pop\n      jump\t// out\n        /* \"#utility.yul\":218:428   */\n    tag_7:\n        /* \"#utility.yul\":305:309   */\n      0x00\n        /* \"#utility.yul\":343:345   */\n      0x20\n        /* \"#utility.yul\":332:341   */\n      dup3\n        /* \"#utility.yul\":328:346   */\n      add\n        /* \"#utility.yul\":320:346   */\n      swap1\n      pop\n        /* \"#utility.yul\":356:421   */\n      tag_16\n        /* \"#utility.yul\":418:419   */\n      0x00\n        /* \"#utility.yul\":407:416   */\n      dup4\n        /* \"#utility.yul\":403:420   */\n      add\n        /* \"#utility.yul\":394:400   */\n      dup5\n        /* \"#utility.yul\":356:421   */\n      tag_10\n      jump\t// in\n    tag_16:\n        /* \"#utility.yul\":218:428   */\n      swap3\n      swap2\n      pop\n      pop\n      jump\t// out\n\n    auxdata: 0xa26469706673582212208d5df0a580b083c9b58013ba0560c532769930aa26d49636383ed366bc27143b64736f6c634300081e0033\n}\n",
				"bytecode": {
					"linkReferences": {},
					"object": "6080604052620f42405f553480156014575f5ffd5b5060b38060205f395ff3fe6080604052348015600e575f5ffd5b50600436106026575f3560e01c8063c644f10014602a575b5f5ffd5b60306044565b604051603b91906066565b60405180910390f35b5f5f5f5411905090565b5f8115159050919050565b606081604e565b82525050565b5f60208201905060775f8301846059565b9291505056fea26469706673582212208d5df0a580b083c9b58013ba0560c532769930aa26d49636383ed366bc27143b64736f6c634300081e0033",
					"opcodes": "PUSH1 0x80 PUSH1 0x40 MSTORE PUSH3 0xF4240 PUSH0 SSTORE CALLVALUE DUP1 ISZERO PUSH1 0x14 JUMPI PUSH0 PUSH0 REVERT JUMPDEST POP PUSH1 0xB3 DUP1 PUSH1 0x20 PUSH0 CODECOPY PUSH0 RETURN INVALID PUSH1 0x80 PUSH1 0x40 MSTORE CALLVALUE DUP1 ISZERO PUSH1 0xE JUMPI PUSH0 PUSH0 REVERT JUMPDEST POP PUSH1 0x4 CALLDATASIZE LT PUSH1 0x26 JUMPI PUSH0 CALLDATALOAD PUSH1 0xE0 SHR DUP1 PUSH4 0xC644F100 EQ PUSH1 0x2A JUMPI JUMPDEST PUSH0 PUSH0 REVERT JUMPDEST PUSH1 0x30 PUSH1 0x44 JUMP JUMPDEST PUSH1 0x40 MLOAD PUSH1 0x3B SWAP2 SWAP1 PUSH1 0x66 JUMP JUMPDEST PUSH1 0x40 MLOAD DUP1 SWAP2 SUB SWAP1 RETURN JUMPDEST PUSH0 PUSH0 PUSH0 SLOAD GT SWAP1 POP SWAP1 JUMP JUMPDEST PUSH0 DUP2 ISZERO ISZERO SWAP1 POP SWAP2 SWAP1 POP JUMP JUMPDEST PUSH1 0x60 DUP2 PUSH1 0x4E JUMP JUMPDEST DUP3 MSTORE POP POP JUMP JUMPDEST PUSH0 PUSH1 0x20 DUP3 ADD SWAP1 POP PUSH1 0x77 PUSH0 DUP4 ADD DUP5 PUSH1 0x59 JUMP JUMPDEST SWAP3 SWAP2 POP POP JUMP INVALID LOG2 PUSH5 0x6970667358 0x22 SLT KECCAK256 DUP14 TSTORE CREATE 0xA5 DUP1 0xB0 DUP4 0xC9 0xB5 DUP1 SGT 0xBA SDIV PUSH1 0xC5 ORIGIN PUSH23 0x9930AA26D49636383ED366BC27143B64736F6C63430008 0x1E STOP CALLER "
				},
				"gasEstimates": {
					"creation": {
						"codeDepositCost": "35800",
						"executionCost": "22190",
						"totalCost": "57990"
					},
					"external": {
						"echidna_k_is_positive()": "2420"
					}
				},
				"methodIdentifiers": {
					"echidna_k_is_positive()": "c644f100"
				}
			},
			"storageLayout": {
				"storage": [
					{
						"astId": 5,
						"contract": "contracts/test/echidna/EchidnaInvariants.sol:EchidnaInvariants",
						"label": "k",
						"offset": 0,
						"slot": "0",
						"type": "t_uint256"
					}
				],
				"types": {
					"t_uint256": {
						"encoding": "inplace",
						"label": "uint256",
						"numberOfBytes": "32"
					}
				}
			},
			"userdoc": {
				"kind": "user",
				"methods": {},
				"notice": "Minimal Echidna invariant harness. Extend with real pool/router         invariants (e.g. k never decreases on a fee-bearing swap, liquidity         accounting never underflows) once contracts are wired in.",
				"version": 1
			}
		}
	}
}